:020000040800F2
:10000000D8270020A5020008012A00086D28000852
:10001000FD290008F90C0008792D000800000000F7
:10002000000000000000000000000000092A000895
:10003000090D000800000000052A0008712A0008C8
:10004000BF020008BF020008BF020008BF0200088C
:10005000BF020008BF020008BF020008BF0200087C
:10006000BF020008BF020008BF020008BF0200086C
:10007000BF020008BF020008BF020008BF0200085C
:10008000BF020008BF020008ED0C0008BF02000814
:10009000BF020008BF020008BF020008BF0200083C
:1000A000BF020008BF020008BF020008BF0200082C
:1000B000312B0008BF020008BF020008BF02000881
:1000C000BF020008BF020008BF020008BF0200080C
:1000D000BF020008BF020008BF020008BF020008FC
:1000E000BF020008BF020008BF020008BF020008EC
:1000F000BF020008BF020008BF020008BF020008DC
:10010000BF020008BF020008BF020008BF020008CB
:10011000BF020008BF020008BF020008BF020008BB
:10012000FD0C0008BF020008BF020008BF02000863
:10013000BF020008BF020008BF020008BF0200089B
:10014000BF020008BF020008BF020008BF0200088B
:10015000BF020008BF020008BF020008BF0200087B
:10016000BF020008BF020008BF020008BF0200086B
:10017000BF020008BF020008BF0200080000000024
:10018000BF020008BF02000800F002F800F061F8AA
:1001900014A696E8000CB244B344DA4501D100F04D
:1001A00058F8BAE80F000FA696E83000A5EB040552
:1001B00004EB0607AAEB0704A7F101074FEA1515A0
:1001C0004FEA3414A4F10104AC4201D300F041F829
:1001D00013F0010F18BFFB1A43F0010300F001F800
:1001E000DBE71847E43E0000043F0000103A24BF5C
:1001F00078C878C1FAD8520724BF30C830C144BF8C
:1002000004680C6070470000704700000023002461
:1002100000250026103A28BF78C1FBD8520728BF16
:1002200030C148BF0B607047662903F0A8860020E4
:1002300070471FB503F091FE00F07DF900F0DEFB82
:1002400004000020002103F0D1FCE0601FBD10B5C8
:1002500010BD00F0D7FC1146FFF7EBFF02F08EFD5A
:1002600000F0F5FC03B4FFF7F2FF03BC00F036FD2D
:100270000B49D1F800C04A685CF8043B1068184488
:1002800042F8040B8C4528BFA1F1DC0C8A4228BF40
:10029000A1F1DC02C1F800C04A6020F000407047C4
:1002A000EC0000200948804709480047FEE7FEE7C8
:1002B000FEE7FEE7FEE7FEE7FEE7FEE7FEE7FEE716
:1002C00004480549054A064B704700001D2B0008ED
:1002D00089010008D8210020D8270020D823002039
:1002E000D823002053EA020C00F069802DE9F04B7E
:1002F0004FF00006002B1FBFB3FA83F503FA05F495
:1003000024FA05F65E4012BF1643B2FA82F502FAED
:1003100005F4C5F120051EBF22FA05FC44EA0C04D1
:10032000203556EA044C4FEA144418BF641C4FF0C1
:1003300000084FF00009904271EB030C39D30029FB
:1003400019BFB1FA81F701FA07F6B0FA80F700FA9F
:1003500007F6C7F120071EBF20FA07FC46EA0C0685
:100360002037B6FBF4FCA7EB0507103F07F01F0B87
:10037000CBF120062CFA06F60CFA0BFB44BFB34671
:100380000026202FA4BF5E464FF0000B5BEA060C50
:1003900008BF4FF0010B19EB0B0948EB0608ABFB4C
:1003A000027C06FB02CC0BFB03CCC01B71EB0C01E7
:1003B000C1E70B46024641464846BDE8F08B13B5FF
:1003C000084318BF4FF0FF300146AFF30080BDE88F
:1003D0001C4070470FB41CB5074B06AA7B44694606
:1003E0000090059800F0F1FA0020694600F000FB4B
:1003F0001CBC5DF814FB0000110600002DE9F0475D
:100400004FF0000A89460446C0F820A02046E16863
:100410008847002876D0252806D0D4E901219047C6
:10042000206A401C2062F1E7E168204600258847E9
:10043000C4F81CA006460027C4F818A02A2E09D02C
:10044000304603F0CBFB38B304EB8708303EC8F8E6
:10045000186019E059F8041B204604EB87029161EB
:10046000E1688847012F064618D1E069002820DAA4
:1004700025F020051DE0D8F8180000EB800006EB01
:1004800040003038C8F818002046E1688847064622
:1004900003F0A4FB0028EED1012F0AD02E2E08D1A4
:1004A0002046E16888477F1C0646022F45F020055C
:1004B000C4DBA069002803DA404245F00105A061D1
:1004C000E80701D025F01005B6B1A6F141001928C2
:1004D00002D8203645F400654A463146204625605C
:1004E0004D46FFF7A1FE58B1012806D0ED1D25F0BD
:1004F000070000F1080989E704E005F1040985E730
:1005000030468AE7206ABDE8F08700000B4910B545
:10051000A1F17C020A4CC2E93712372106E000EB58
:10052000104342F82130074B00FB03400B1EA1F1A2
:100530000101F4DC10BD0120E8E700008C00002080
:10054000E119D666CD0D010010B5431C02E010F88C
:10055000011B71B18107FAD14FF0013202C88C1A28
:100560008C4314EAC211F9D0C01A0A0603D0C01E87
:1005700010BDC01A10BD0A0401D0801E10BD0902B2
:10058000FCD0401E10BD70477047704710B500F09A
:1005900039FA006810BD10B5044600F033FA046063
:1005A00010BD2DE9FF4F0C461E464FF0FF378BB0B4
:1005B000D2E90001DDF860800A908A46C1F30A554D
:1005C00005B93D46002108464FF00000BAF1000F82
:1005D00000F4400005DA00EB80004FF4400101EA2E
:1005E00050004FEA9059B9F1010F00DDB9460A9861
:1005F00050EA4A000ED044F61050A5F2FF354543AC
:100600002F14B8F1000F1ED07542291E1EDDC9F14E
:1006100000021CE0B8F1010F4FF0000001D03021C2
:1006200003E0F24305E02154401CB042FBDB3046BE
:100630000022002121540B99C1F80880C1E9002053
:100640000FB0BDE8F08FBD1B6D1CDEE74A4600DA37
:10065000694206A800F060FA06AB93E8070003AB16
:1006600083E8070050460A9902F09FFB8DE80700D7
:10067000A0F500501F3800900398002D0ADD42F2CB
:100680001F014A460844002303A90390684602F06C
:1006900009FE09E0A0F500504A461F38002303A9CF
:1006A0000390684602F013FE8DE807000004000C7A
:1006B00003D04FF0FF30410800E01046B8F1000FC2
:1006C00003D00022009215461EE0751E05D400F0EE
:1006D0009DF9303262556D1EF9D5B34601220843AB
:1006E00002D000227F1C04E02078302801D10022B3
:1006F0007F1E002A099784D01DE0112D07DA00F033
:1007000085F9303262556D1C50EA0102F5D108437B
:1007100002D00098C8B10EE00021681E05E0235CFD
:10072000625C63542254401E491C8142F7DBAB4695
:10073000A81B401E0990002004F80B000B98099A92
:10074000C0F80880C0E9002B7AE711264FF00008B6
:1007500057E72DE9F04F88460446D21D22F00701E5
:1007600091B0D1E90001CDE90A0102F0E7FE0246AD
:100770000B98C00F01D02D2007E02068810701D51C
:100780002B2002E0202101EAC000032A099001D0B9
:10079000072A05DB03464146204600F07DF90BE1C0
:1007A0002078800601D5E06900E00620B8F1650FE9
:1007B000814606D0B8F1660F18D0B8F1670F70D136
:1007C00031E00020B9F1110F009001DB112301E0AD
:1007D00009F101030AAA01A90CA8FFF7E2FEDDE96D
:1007E0000C70002609F10105834647E001204B46C5
:1007F00000904FF000470AAA01A90CA8FFF7D1FE0C
:10080000DDE90DB00C995D46002610B909F1010033
:100810000D18B9EB050003D4C0F1FF3609F101054D
:10082000A5EB09002BE0B9F1010F01DA4FF0010946
:100830000020B9F1110F0090484601DD112300E0BE
:1008400003460AAA01A90CA8FFF7ABFEDDE90C706C
:100850004D4600268346207800070AD4AB4500DACF
:100860005D4601A8012D04DD411911F8011C302954
:1008700007D04F4502DA17F1040F04DA012082464F
:100880000FE06D1EEEE7002F02DCED1B3E4403E09F
:10089000781CA84200DD7D1CB81B00F1010A4FF056
:1008A00000472078000703D4AA4501DB4FF0FF3A48
:1008B0000021B7F1004F0DF143088DF8431024D00B
:1008C00002202B23002F01DA7F422D230A21021E52
:1008D000A0F1010000DC5FB197FBF1FC97FBF1F2A6
:1008E00001FB1C7C17460CF1300C08F801CDEEE73B
:1008F000A8F1010003702188090501D5452100E018
:100900006521A0F1010800F8011C09980FA9A1EBCD
:100910000807FF1D00B10120411901EBEA70A16930
:100920003844081A401EA0612078C00602D4204630
:10093000AFF30080099828B1D4E901219047206ADB
:10094000401C20622078C00622D52046AFF30080EC
:100950001EE0002E04DBB34502DD01A8805D00E04F
:100960003020D4E901219047206A401C2062761C87
:10097000AAF101005FEA000A0AD100F03FF8C0685E
:100980000168405CD4E901219047206A401C206244
:10099000281EA5F10105DCDC07E0D4E9012118F8E7
:1009A000010B9047206A401C2062381EA7F1010706
:1009B000F3DC2046AFF30080032011B041E60000D5
:1009C00001694A1C02610878704700B58FB0CDE913
:1009D00001310021059105497944CDE90310114603
:1009E0006846FFF70BFD0FB000BD0000E5FFFFFFFD
:1009F0000A6802F8010B0A6070470000004870475F
:100A00001401002000487047F400002030B5B0F118
:100A10000A0271F100034FEA900E4EEA817EB0EBBC
:100A20000E0061EB91014FEA101E4EEA017E10EBC1
:100A30000E0041EB11114FEA102E4EEA016E10EB41
:100A40000E0041EB11214FEA104E4EEA014E10EB21
:100A50000E0041EB1141401841F100014FEAD00076
:100A600040EA41704FEAD1014FEA810444EA9074B0
:100A700010EB800544EB01046D1944EB0404521B98
:100A8000A3414FF0000348BF0A3200D530BD401CDF
:100A900041F1000130BD00002DE9F0411F46044640
:100AA00003260168072A01F4006004DB08B116A5DB
:100AB00005E016A503E008B115A500E015A521F095
:100AC00010002060A069C01EA0610FB1401EA0618F
:100AD0002046AFF300804FB1D4E90121384690475A
:100AE000206A401C2062C01C206206E0206AFAE7EF
:100AF000D4E9012115F8010B9047761EF8D2204663
:100B0000AFF30080BDE8F0814E414E006E616E0093
:100B1000494E4600696E66002DE9F047814616464B
:100B20008AB0354878440DC88DE80D0032487844C5
:100B3000801C03AC0DC884E80D0041F69B300844CE
:100B4000372190FBF1F290FBF1F5A5F1800501FB57
:100B500012041B3C02D56442012000E00020DFF8B3
:100B600098A080460027FA44AAF1BE0A0EE0E007EA
:100B70000AD03246684607EB470101230AEB8101A0
:100B800002F0A5FB8DE8070064107F1C002CEED15D
:100B9000194F7F44AE3F19E0E80715D007EB04106A
:100BA0000DF1180A90E80E008AE80E00C068F042C5
:100BB00001D1981908903246012306A903A802F032
:100BC00086FB03AB83E807006D10641C002DE3D1A6
:100BD0004FF0010332466946B8F1000F03A802D076
:100BE00002F060FB01E002F072FBC9E90001C9F804
:100BF00008200AB0BDE8F08768350000004870475B
:100C0000F40000207546FFF7F9FFAE46050069467F
:100C1000534620F00700854618B020B5FFF750FB7B
:100C2000BDE820404FF000064FF000074FF00008ED
:100C30004FF0000BAC46ACE8C009ACE8C009ACE82A
:100C4000C009ACE8C00921F007018D46704710B516
:100C50000446AFF300802046BDE81040FFF702BB1A
:100C600030B44FF0013C50F8042B51F8043BCCFA5F
:100C700052F4D51A20D1FCB950F8042B51F8043B9A
:100C8000CCFA52F4D51A17D1B4B950F8042B51F854
:100C9000043BCCFA52F4D51A0ED16CB950F8042B9F
:100CA00051F8043BCCFA52F4D51A05D1002CDAD015
:100CB00030BC4FF00000704729BAB1FA81F111F051
:100CC0001801D1F120008440F2D1CA40CB4012F08B
:100CD000FF0213F0FF0330BCD01A704701491820FF
:100CE000ABBEFEE7260002007047000042F298000B
:100CF000C2F2000000F00ABAFEE7000042F2E00093
:100D0000C2F2000000F0B0BB7047000072B600BF36
:100D1000FEE700000000000080B52DED068BB0EE70
:100D2000408AFFF7A5FA00EE100A9FED19AAB8EE67
:100D3000C00A20EE0A9AFFF79BFA00EE100AB8EEFE
:100D4000C00A20EE0AAAB0EE490A02F0C1FDB8EED0
:100D5000001A20EE010A1AEE100AB1EEC09A03F052
:100D60008BF89FED090B53EC102B02F087FF02F07C
:100D700053FF00EE100A02F00DFC20EE090A20EEEF
:100D8000080ABDEC068B80BD90F46915FD21194061
:100D900000000030B0B52DED0E8B41F2F800C2F22C
:100DA00000009FED7A8A9FED7A9A9FED7AAA041F40
:100DB000002500BF00EE105AB8EEC00A30EE080A57
:100DC00020EE000A80EE090A02F08CFC20EE0A0AEE
:100DD000013584ED010A0434B5F57A7FEAD1FFF7D5
:100DE00047FA00EE100A9FED6CCAB8EEC00A9FEDFC
:100DF0006B1A20EE0C0A20EE010AB5EE001A9FEDE8
:100E0000682A20EE010A30EE02BAB0EECB0AB5EE47
:100E100040BAB3EE0E2A63A0F1EE10FAB4EE420A25
:100E2000C8BF043090ED001AF1EE10FAB8BFB0EE72
:100E300041BAFFF71DFA00EE100AB8EEC00A20EE24
:100E40000CDAFFF715FA9FED591A00EE100AB8EE0A
:100E5000C00AB4EE41DAF1EE10FA20EE0C0A33DAF1
:100E6000B6EE001A40F2581020EE010AC2F200005D
:100E70009FED50DA20EE0ACA3BEE08BA041F0025A7
:100E800000EE105AB8EEC0EA3EEE080A20EE000A64
:100E900080EE090A02F026FC3BEE0E1A21EE011A42
:100EA00081EE0D1A20EE0AEAB0EE410A02F01AFCB9
:100EB0002CEE000A3EEE000A013584ED010A0434EE
:100EC000B5F57A7FDCD15EE0B6EE00DAB4EE4D0A1D
:100ED000F1EE10FA3CDDFFF7CBF900EE100AB8EEA8
:100EE000C00A20EE0C0A9FED321A40F2581020EE94
:100EF0000D0AC2F200009FED2FDA20EE0ACA3BEE87
:100F000001BA041F002500BF00EE105AB8EEC0EA77
:100F10003EEE080A20EE000A80EE090A02F0E2FB2B
:100F20003EEE4B1A21EE011A81EE0D1A20EE0AEA6E
:100F3000B0EE410A02F0D6FB2CEE000A3EEE000AAB
:100F4000013584ED010A0434B5F57A7FDCD11AE06D
:100F500040F25810C2F20000051F002400EE104AB3
:100F6000B8EEC00A30EE080A20EE000A80EE090A48
:100F700002F0B8FB20EE0A0A013485ED010A0435BF
:100F8000B4F57A7FEAD1BDEC0E8BB0BD0000FAC398
:100F900000409CC6000096430000003000007A44E8
:100FA0000000FAC2000048C200004842CDCCCC3E4E
:100FB0000000FA438F0359C67047000070B581B036
:100FC0000022009290F83C20012A03D10221084619
:100FD00001B070BD0E6801220A2E80F83C2009D3B2
:100FE000B2B25200D0F800E012FA86F21E3A0EF1C8
:100FF0000C0305E0D0F800E006EB46020EF110030A
:101000004FF0070C1D680CFA02F4A5431D608D68B3
:101010001C6805FA02F222431A60496806290FD8B3
:1010200001EB81014A1F71461F2351F8345F934041
:1010300025EA03030B60B3B203FA02F214E000BF27
:1010400001EB81030C29B2B204D8714651F8304F3C
:10105000233B03E0714651F82C4F413B1F259D4037
:1010600024EA05059A400D600B6842F2043CC4F284
:10107000010C1A43ACF541739E450A603BD1122E18
:1010800006D1DCF8001041F48001CCF8001032E009
:1010900026F0010110292ED1DCF80010102E41F4A9
:1010A0000001CCF8001026D140F20801C2F2000184
:1010B00009684DF68362C4F21B32A1FB0212910C47
:1010C00001EB8101490000910099A1B1009901391A
:1010D0000091009979B1009901390091009951B1BD
:1010E000009901390091009929B1009901390091C5
:1010F00000990029EAD1002180F83C10084601B08F
:1011000070BD0000704700007047000070B50446D5
:10111000006806684568B10717D515F0200114D09E
:10112000216CC90603D4216C41F4007121648168EB
:1011300011F0405F02D1217E002969D02046FFF7DF
:10114000E1FF20686FF012010160710714D515F0FE
:10115000800111D0216CC90603D4216C41F40051E7
:101160002164816811F4401F22D02046FFF724FF3C
:1011700020686FF00C010160F10706D015F0400106
:101180001CBF01685FEAC17134D1B1060FD515F0FB
:10119000806108BF70BD616C6FF0200541F00201F5
:1011A000616405602046FFF7AFFF2068056070BDF1
:1011B000816B11F4401F02D081684905D5D4416884
:1011C0004905D2D4816811F0405FCED1217E00293B
:1011D000CBD1416821F080014160206C20F4805027
:1011E0002064206CC005C0D4206C40F00100206455
:1011F000BBE700BF206C40F480302064204600F044
:10120000D1F820686FF001010160B106BFD4CEE7CC
:10121000C16A11F4700F03D0816849053FF58EAFA4
:10122000416821F020014160206C20F4807020642E
:10123000206CC0043FF582AF206C40F001002064B8
:101240007CE70000002804BF0120704710B5044669
:10125000006C00283ED0206CC00645D4206C41F2C2
:1012600002118843023042F204312064C4F20101C9
:10127000086820F4403008600A6894E809101A43AE
:10128000D4F810E00A604168012321F480714160C4
:101290004168C0F6007341EA0E214160416821F0C7
:1012A00040714160416841EA0C014160816821F46C
:1012B00000618160E168826811438160A16A82688F
:1012C000994222F070628260826813D122F040510C
:1012D00019E000BF204600F067F80020606484F841
:1012E0003C00206CC006B9D50120002184F83C10D8
:1012F00010BD00BF11438160816821F040518160C1
:10130000E16A826811438160816821F00201816095
:101310008168227E94F8203041EA42018160416870
:1013200083B141F40061416041684EF2000221F452
:1013300060414160616ACFF6FF72436802EB413160
:10134000194301E021F400614160C16A40F2000CE0
:1013500021F47001C162E2696169CFF6F07CC36A71
:101360000CEB02521A43C262826822F4007282605D
:1013700094F83020836843EA42228260826822F433
:1013800080628260826842EA81218160002060641C
:10139000216C012262F301012164002184F83C10D8
:1013A00010BD00007047000070B586B0044642F2E0
:1013B00000002168C4F201000026814205960496CF
:1013C00002D006B070BD00BF43F630010096C4F2F3
:1013D00002014A6900F5604042F480724A614A693C
:1013E00002F480720092009A00960A6842F00102AC
:1013F0000A60096801F00101009100991021019132
:101400000321CDE9021601A900F0C0F942F2E0057E
:1014100046F21040C2F20005C4F202004FF48061AF
:10142000C5E9000605F110004FF400624FF40053C7
:101430004FF4807C80E80E102846C5E90266C5E9B5
:10144000086600F0F1F8002818BFFFF75FFC1220D3
:1014500000210022A563AC6300F0EAFA122000F03C
:10146000D5FA06B070BD0000F0B581B0044600208A
:10147000009040F20800C2F200000268D4E9166051
:1014800048F2B51337680821C1F64E33814039421E
:10149000A2FB03250CD0226813685B0708D51368EC
:1014A00023F004031360B160616D41F001016165D7
:1014B00001218140394208D022685269120604D5C0
:1014C000B160616D41F002016165042181403942E2
:1014D00008D022681268920704D5B160616D41F0AE
:1014E0000401616510218140394217D020680268EB
:1014F000120713D5B16002680168520308D4C90508
:1015000008D4016821F008010160216C21B905E0CF
:1015100008033FD4216C09B120468847E16D2020A3
:1015200000FA01F23A4241D020680368DB063DD55B
:10153000B26094F835300268052B1BD122F01602F8
:101540000260426922F080024261226C0AB9A26CF8
:101550001AB1026822F0080202603F208840B060A1
:10156000012084F83500216D0020002984F8340022
:1015700052D157E00168520310D4C90512D4016852
:1015800021F010010160012084F83500002084F86A
:10159000340007E0A16C0029BED1BFE7080301D4E5
:1015A000616C00E0E16B09B120468847606DC8B30B
:1015B000606DC0072ED0052084F835002068A90A88
:1015C000026822F001020260009A01328A4200920F
:1015D0001AD80268D20717D0009A01328A420092C4
:1015E00012D80268D2070FD0009A01328A420092C4
:1015F0000AD80268D20707D0009A01328A420092C4
:1016000002D80268D207DFD1012084F8350000201B
:1016100084F83400E16C29B1204601B0BDE8F04007
:10162000084700BF01B0F0BD2DE9F041044600F0CD
:101630007DF9ECB10546022084F8350000202168D0
:1016400084F83400086820F0010008602168086808
:10165000C00711D000F06AF9401B0528F6D9032510
:1016600020230320636584F83550BDE8F08100BF76
:101670000120BDE8F08100BF086848F23F02CFF2C8
:101680001002D4E9013500EA020C04F10C0898E8D4
:10169000C10143EA0C032B431843D4E9072E30431E
:1016A00038431043626A40EA0E00042A40EA080305
:1016B0001CD1206BD4E90A2E40EA0E0018430860C2
:1016C0004869BEF1000F20F0030040EA020040F03C
:1016D000040C11D0B8F5005F36D0B8F1000F45D139
:1016E000022A46D0012A3BD032B942E00B60486959
:1016F00020F0070040EA020C01F0F8004AF6AB22A5
:101700001038CAF6AA22A0FB02231A0944F2C00329
:10171000C1F814C0C0F600039A5C40F2FF335F28A2
:101720004FF03F0021EA030100FA02F088BF0431C4
:10173000C4E916128860002301250020636584F83F
:101740003550BDE8F08100BF032AD5D801254023DC
:101750000120DFE802F0030E030500BF82E700BFAF
:10176000AEF1C070B0FA80F0400904E0032A04D35F
:10177000C2D1CEF300600028BED001254023012055
:10178000636584F83550BDE8F08100002DE9F04F25
:1017900082B000F13E4707F1FF77860546EA9727BA
:1017A00041F60046C4F20206082243F6004EB0425B
:1017B00008BF0722C4F2010E072F38BF3A460026A1
:1017C00000274FF00008009209E000BF08F101086F
:1017D0000237B8F1100F06F1040600F0A3800D687F
:1017E000012202FA08F415EA0409EFD0D1F804B096
:1017F00003220BF0030CACF10105BA40012D6FEA96
:10180000020A0FD88268CD6802EA0A02BD402A4364
:1018100082604268A243CBF3001404FA08F4224326
:10182000426005E0BCF1030F02D14FF0030C1EE053
:10183000C2688C6802EA0A02BC402243BCF1020F73
:10184000C26014D16FF0030202EA58020244D2F8D7
:1018500020C006F01C040F230D69A3402CEA0303EB
:10186000A5402B431362D1F804B00BF0030C0268BF
:101870000CFA07F302EA0A021A431BF4403F026023
:10188000A4D0002243F644030192C4F202031A6872
:101890004FF6084C42F480421A601A68CFF6FF7C7B
:1018A00002F480420192019A28F00302724452F835
:1018B0000C3006F00C050F24AC40A343009C04FA46
:1018C00005F52B4342F80C30DEF808204B6842EA5D
:1018D000090543F60C4CDC0258BF22EA0905CEF894
:1018E0000850C4F2010CDCF800209C0242EA090511
:1018F00058BF22EA0905CCF80050DEF804209C030A
:1019000042EA090558BF22EA0905CEF80450DEF87C
:101910000020DB0342EA090558BF22EA0905CEF898
:10192000005053E702B0BDE8F08F000042F2D01043
:10193000C2F200000068704740F2000042F2D0118D
:10194000C2F20000C2F2000100780A681044086088
:101950007047000080B543F60040C4F20200016801
:1019600041F400710160016841F480610160016827
:1019700041F480710160032000F086F80F2000F030
:1019800005F800F027F8002080BD000070B540F297
:101990000006C2F2000640F208013278C2F20001ED
:1019A0004FF47A730968B3FBF2F20446B1FBF2F12B
:1019B000084600F061FB0F2C4FF0010508D838B93C
:1019C0004FF0FF3021460022002500F031F874600E
:1019D000284670BD82B0002043F640010190C4F259
:1019E00002014A6842F480424A604A6802F4804236
:1019F0000192019A0090086840F0805008600868E1
:101A000000F080500090009802B07047002848BF56
:101A1000704700F01F01012202FA01F11C2202EAC4
:101A2000D0004EF20012CEF200028150704700004A
:101A300010B54EF60C5CCEF2000CDCF80030C3F3AF
:101A4000022E8EF00704042C28BF0424BEF10303E9
:101A50004FF0FF3E0EFA04F438BF0023A143994033
:101A60000EFA03F39A43114300F00F0200F16043B2
:101A70000901043A03F564436244002848BF02F1B7
:101A80000C03197010BD00004EF60C51CEF200018F
:101A90000A684FF6FF031A4060F30A2242F08060A2
:101AA00040F0FD7008607047002804BF01207047B7
:101AB0002DE9F04143F60808C4F202080446D8F8BC
:101AC000F8030D4600F00700884207D288F8F85363
:101AD000D8F8F80300F00700A84277D12068810702
:101AE00017D5410705D5D8F8001041F4E051C8F8E2
:101AF0000010010705D5D8F8001041F46041C8F87E
:101B00000010D8F80010A26821F0F0011143C8F8C5
:101B10000010C00740D1D8F8F80300F00700A84231
:101B200007D988F8F853D8F8F80300F00700A8425E
:101B30004CD12068410707D5D8F80010E26821F49D
:101B4000E0511143C8F80010000708D5D8F800008C
:101B5000216920F4604040EAC100C8F8000000F0AC
:101B60007DF8D8F8001044F2A802C1F30311C0F6C2
:101B70000002515C40F2080220FA01F140F2040038
:101B8000C2F200000068C2F200021160FFF7FEFE20
:101B90000020BDE8F08100BF6068811E022907D2E5
:101BA00058F8081C89015CBF0120BDE8F08111E0F4
:101BB000012807D158F8081C89035CBF0120BDE843
:101BC000F08107E058F8081C890703D40120BDE81C
:101BD000F08100BFD8F8001021F003010843C8F8D5
:101BE0000000FFF7A3FE064641F28837D8F8000050
:101BF000616800F00C00B0EB810F8CD0FFF796FE0F
:101C0000801BB842F2D90320BDE8F08140F2080001
:101C100043F60801C2F20000C4F20201006809683C
:101C200044F2B802C1F38221C0F60002515CC84000
:101C30007047000040F2080043F60801C2F20000BD
:101C4000C4F202010068096844F2B802C1F34231EB
:101C5000C0F60002515CC8407047000010B543F662
:101C60000404C4F20204606800F00C0142F2004077
:101C70000829C0F2F40007D0042918BF10BD41F2B2
:101C80000020C0F27A0010BD216801F03F022168F7
:101C900023684902C3F3881106D4A1FB0001002385
:101CA000FEF720FB07E000BF41F20020C0F27A00FF
:101CB0004843B0FBF2F021680222C1F3014102EB7C
:101CC0004101B0FBF1F010BD002804BF01207047B6
:101CD0002DE9F04182B00446007843F60006C007C3
:101CE000C4F202060CD0B06800F00C00042840F0EA
:101CF00081803068800303D56068002800F06A8125
:101D0000207880071BD5B06810F00C0F09D0B068A0
:101D100000F00C00082840F087807068400200F155
:101D200083803068800703D5E068012840F0528145
:101D30003068216920F0F80040EAC1003060207866
:101D4000000713D4207840072AD4A569002D00F09D
:101D50003C81B06800F00C00082840F0A180012D03
:101D600040F01081012002B0BDE8F08160690028D8
:101D700040F20000C4F2472000F07E800121C0F84C
:101D8000801EFFF7D3FD0546706F8007DAD4FFF79A
:101D9000CDFD401B0228F7D9032002B0BDE8F08139
:101DA000306C5FEAC0080AD400200190306C40F02B
:101DB00080503064306C00F080500190019847F200
:101DC0000007C4F200073868C00547D4386840F4FB
:101DD00080703860FFF7AAFD054600BF3868C0056F
:101DE0003CD4FFF7A3FD401B0228F7D9032002B023
:101DF000BDE8F081B06800F00C00082803D17068DD
:101E000040023FF576AF6068B0F5803F07D0B0F58F
:101E1000A02F40F09B80306840F480203060306814
:101E200040F4803030609BE0E06800285CD0002007
:101E3000C4F2472001210160FFF778FD054600BF8D
:101E4000306880073FF574AFFFF770FD401B022834
:101E5000F6D9032002B0BDE8F08100BFA0680128D8
:101E600005D0052854D1306F40F004003067306F42
:101E700040F00100306755E00021C0F8801EFFF7F8
:101E800055FD0546706F80077FF55CAFFFF74EFD8F
:101E9000401B0228F6D9032002B0BDE8F08100BF44
:101EA0000027C4F2472700203866FFF73FFD022DC8
:101EB00005460DD13068800140F19080FFF736FD76
:101EC000401B02284FF00300F4D902B0BDE8F081B6
:101ED0003068800179D5FFF729FD401B02284FF0BB
:101EE0000300F5D9F1E700BF0020C4F2472000212C
:101EF0000160FFF71BFD0546306880077FF51FAFC7
:101F0000FFF714FD401B02284FF00300F4D9DCE773
:101F1000316F002821F001013167316F21F0040198
:101F200031677DD0FFF702FD054641F2883700BFDB
:101F3000306F800700F18680FFF7F8FC401BB84245
:101F4000F6D9032002B0BDE8F08100BF3168002857
:101F500021F480313160316821F4802131607BD0FF
:101F6000FFF7E4FC054600BF306880033FF5C8AECC
:101F7000FFF7DCFC401B6428F6D9032002B0BDE863
:101F8000F08100BF7068E16900F480028A4221D1CB
:101F9000216A00F03F028A421CD147F6C071626A92
:101FA0000140B1EB821F15D1A16A4FF6FF73C9033F
:101FB000994300F44032A1F580318A420AD1E16AA6
:101FC00000F07060B0EB016F04D1002002B0BDE8FA
:101FD000F08100BF012002B0BDE8F08104F11C05D2
:101FE0002FCD084340EA8210D9034FF6FF72914388
:101FF000A1F5803140EA0560084370600120386631
:10200000FFF794FC044600BF30688001DDD4FFF781
:102010008DFC001B02284FF00300F5D955E700BFE7
:10202000FFF784FC054641F2883700BF306F800718
:1020300008D5FFF77BFC401BB8424FF00300F5D9F1
:1020400043E700BFB8F1000F3FF57FAE306C20F0E2
:102050008050306479E600BFFFF768FC054600BF9A
:10206000306880037FF54CAEFFF760FC401B6428AE
:102070004FF00300F4D928E7411E0020B0EB116FA8
:102080001CBF012070474EF21002CEF200025160D8
:102090004EF62351CEF20001F0230B700721906021
:1020A00011607047704700007047000090F83C20B6
:1020B000012A4FF0020254D010B580F83D2002688A
:1020C000D2F804E0D2F808C00C682EF07003234365
:1020D00041F2FF74C4F20004A24253600EDC40F2ED
:1020E000FF73C4F200039A4216DCB2F1804F2BD08A
:1020F00040F20043C4F2000324E000BF40F2FF338B
:10210000C4F201039A4213DC41F60003C4F2000357
:102110009A4219D0002313E040F60003C4F20003F2
:102120009A4211D040F60043C4F200030AE000BF17
:1021300044F20003C4F201039A4205D040F2004386
:10214000C4F201039A4204D149682CF08003194378
:1021500091600121002280F83D1080F83C20BDE80C
:102160001040104670470000002804BF012070474F
:1021700010B5044690F83D0028B9002084F83C00D2
:10218000204600F01FF8022084F83D002068211D41
:1021900000F0D4FC012084F8460084F83E0084F866
:1021A0003F0084F8400084F8410084F8420084F83D
:1021B000430084F8440084F8450084F83D00002082
:1021C00010BD00000068B0F1804F18BF704780B5A7
:1021D00082B00020019043F64000C4F20200016882
:1021E000002241F0010101600068002100F00100BF
:1021F000019001981C20FFF71BFC1C2002B0BDE8D9
:102200008040FFF703BC000090F83D1001291CBF7F
:1022100001207047022180F83D10006841F2FF72F2
:10222000C168C4F20002904241F00101C1600DDCBE
:1022300040F2FF71C4F20001884215DCB0F1804F1A
:102240002AD040F20041C4F2000123E040F2FF3105
:10225000C4F20101884213DC41F60001C4F200011E
:10226000884219D0002113E040F60001C4F20001B9
:10227000884211D040F60041C4F200010AE000BFDC
:1022800044F20001C4F20101884205D040F200414D
:10229000C4F20101884206D1816801F007010629D4
:1022A00004BF00207047016841F001010160002077
:1022B0007047000090F83C20012A4FF0020200F025
:1022C000C58080B580F83D20D0F800C04FF6777209
:1022D000DCF8083023EA0202CCF808200B684F2B08
:1022E00028DC1F2B44DD202B45D0302B43D0402B46
:1022F00040F0AE80D1F804E0C968DCF82030DCF8AA
:10230000202022F00102CCF82020DCF8182022F056
:10231000F00242EA011123F00A0242EA0E02CCF86E
:102320001810CCF82020DCF8081041F0470121F00B
:10233000300180E06F2B27DDB3F5005F48D0B3F5A7
:10234000805F7AD0702B40F08380D1E901E3C968C7
:10235000DCF8082043EA0E0322F47F4243EA01211D
:102360001143CCF80810DCF8081041F0770162E066
:102370000BB1102B6CD1DCF8081021F0700119435F
:1023800041F0070157E000BF502B35D0602B5FD1E3
:10239000D1F804E0C968DCF82030DCF8202022F015
:1023A0001002CCF82020DCF8182022F4704242EA17
:1023B000013123F0A00242EA0E12CCF81810CCF83A
:1023C0002020DCF8081041F0670121F0100132E014
:1023D000D1E901E3C968DCF8082043EA0E0322F4DE
:1023E0007F4243EA01211143CCF80810DCF80810C1
:1023F00041F480411FE000BFD1F804E0C968DCF877
:102400002030DCF8202022F00102CCF82020DCF87B
:10241000182022F0F00242EA011123F00A0242EAF7
:102420000E02CCF81810CCF82020DCF8081041F08F
:10243000570121F02001CCF808100022012180F87A
:102440003D10002180F83C10BDE8804010467047E8
:102450000122F3E77047000070B504460068C568C4
:102460000669B10716D515F0020113D06FF002010D
:102470000161012121778069800703D02046FFF7A1
:10248000E9FF05E0204600F08FF8204600F08EF8C6
:1024900000202077700719D515F0040016D02068A9
:1024A0006FF00401016102212177806910F4407FFF
:1024B00004D02046FFF7CEFF06E000BF204600F024
:1024C00073F8204600F072F800202077300717D507
:1024D00015F0080014D020686FF008010161042194
:1024E0002177C069800703D02046FFF7B3FF05E0DE
:1024F000204600F059F8204600F058F800202077D8
:10250000F00619D515F0100016D020686FF01001F4
:10251000016108212177C06910F4407F04D0204672
:10252000FFF798FF06E000BF204600F03DF8204688
:1025300000F03CF800202077F00718BF15F00100EC
:1025400002D1300609D412E020686FF00101016168
:10255000204600F02DF8300609D515F0800006D091
:1025600020686FF0800101612046FFF79BFD700637
:1025700009D515F0400006D020686FF040010161D8
:10258000204600F04FF8B00658BF70BD15F020008F
:1025900008D021686FF0200220460A61BDE8704033
:1025A000FFF782BD70BD000070470000704700005B
:1025B00010B52DED048B0068B0F1804F2ED140F2A4
:1025C0005414C2F20004208840F25811C2F20001F3
:1025D00001EB800090ED009A208841F2F801C2F2F0
:1025E000000101EB800090ED008AB7EE080AFEF7CB
:1025F00093FB39EE000AF0EE480A00F007FA208853
:10260000013020802088B0F57A7F07D30020208019
:10261000BDEC048BBDE81040FEF7BCBBBDEC048BE9
:1026200010BD000070470000002804BF0120704763
:1026300010B5044690F8410028B9002084F8400005
:10264000204600F021F8242084F841002068C16869
:1026500021F40051C160204600F016FB206801699A
:1026600021F490410161416921F02A014161C16871
:1026700041F40051C16000202021606484F84110C1
:1026800084F84210606310BD016841F20000C4F29A
:102690000100814218BF704780B586B0002143F623
:1026A00030020191C4F20202536900F5704043F018
:1026B00010035361536903F010030193019B0191CF
:1026C000136843F001031360126802F001020192E3
:1026D000019A4FF4C06201920222CDE90221032146
:1026E00004910721059101A9FFF750F806B0BDE854
:1026F000804070472DE9F041044690F841002028C1
:102700001CBF0220BDE8F0810D4600294FF00100FA
:1027100000F0AA801646002A08BFBDE8F08100201C
:1027200060642120984684F84100FFF7FFF8A684F2
:10273000E684A1680646B1F5805F02D120690028D1
:1027400062D02F460025E08C002861D018F10100EE
:1027500018D0B8F1000F37D1216808E017F8010B45
:102760004860E08C0138E084E08C002851D0086893
:10277000000673D5002FF1D135F8020B00276FF357
:102780005F20EDE7216802E00868000609D40868C8
:10279000000606D4086800065CBF08685FEA0060AF
:1027A000F2D51FB117F8010B05E000BF35F8020B99
:1027B00000276FF35F204860E08C0138E084E08CF4
:1027C0000028E4D125E000BF216800BF08680006AA
:1027D00008D4FFF7ABF8801B404541D82168C86892
:1027E000F4E700BF17B117F8010B04E035F8020B4E
:1027F00000276FF35F204860E08C0138E084E08CB4
:102800000028E3D105E000BF0027E08C00289DD11F
:102810002168086840061FD4B8F1000F1ED018F1D7
:1028200001000FD10868400616D40868400613D48A
:102830000868400610D4086840064FF00000F1D543
:102840000FE000BFFFF772F8801B404508D82068F2
:10285000C16800684006F5D5002002E0FFF766F881
:102860000320202184F84110BDE8F081FEE700003C
:1028700010B584B042F29800C2F2000042F2000C9F
:102880004FF080544FF0C0620021C4F2010C4FF4AD
:102890008033C0E90A2401240391017680F82010D6
:1028A000C46180F83010C0E900C3C0E90211C0E97A
:1028B0000414FEF7C7FC002818BFFEF727FA04200F
:1028C000CDE9000442F29800C2F200006946029489
:1028D000FEF774FB002818BFFEF718FA04B010BD0D
:1028E00080B582B00020019043F63000C4F20200AF
:1028F0000168002241F4800101600068002100F4B9
:102900008000019001983820FFF792F8382002B03B
:10291000BDE88040FFF77AB882B0002043F630016E
:102920000190C4F202010A6842F080020A600A685B
:1029300002F080020192019A0090086840F00100C4
:102940000860086800F001000090009802B070472D
:1029500080B586B042F240100021C2F200004FF074
:102960008042532342F20F7C0591CDE90311CDE95A
:102970000011C0E90023C0E9021C01618161FFF779
:10298000F3FB002818BFFEF7C1F94FF48050029006
:1029900042F24010C2F2000002A9FFF78BFC0028AF
:1029A00018BFFEF7B3F942F24010C2F200006946C8
:1029B000FFF77CFB002818BFFEF7A8F906B080BD22
:1029C00080B542F2881041F20001C2F20000C4F268
:1029D000010100234FF00C0C4FF4E13280E80E00AF
:1029E000C0E90333C0E905C3C361FFF71DFE00283A
:1029F00008BF80BDBDE88040FEF788B9FEE7000053
:102A0000FEE70000704700007047000070B52DED34
:102A1000028B92B010EE100AB0EE608A01F02CFA30
:102A2000044618EE100A0D4601F026FA41EC100B90
:102A300002AE0CA1304622462B468DED000BFDF771
:102A4000C9FC3046FDF780FDC2B242F28810C2F2E6
:102A5000000031464FF6FF73FFF74CFE12B0BDEC9D
:102A6000028B70BD252E32662C252E32660A0000A0
:102A7000FEF762BFB0B592B0002443F64000CDE946
:102A80000A44CDE908440594CDE90344CDE9014465
:102A90000094C4F202000168022541F080510160F7
:102AA000006800F080500090009847F20000009409
:102AB000C4F20000016841F4804101600068A8216F
:102AC00000F4804000900098012006904FF4803080
:102AD00007904FF480000D9004200E90119006A8EE
:102AE0000C95CDE90F15FFF7EFF818B172B600BFDE
:102AF000FEE700BF0F20CDE901054FF4A050049080
:102B00004FF48050059001A805210394FEF7CCFFF7
:102B100010B172B6FEE700BF12B0B0BD4EF68850DD
:102B2000CEF20000016841F47001016070470000BE
:102B300042F24010C2F20000FFF78EBC10B540F622
:102B4000FF3E0368C4F2000E40F2004C7045C4F230
:102B5000010C27DCB0F1804F31D040F20042C4F2CA
:102B6000000290422BD040F60002C4F200029042D4
:102B700025D041F6FF72C4F20002904229DC704574
:102B80003CDCB0F1804F5FD040F20042C4F2000262
:102B9000904259D040F60002C4F20002904253D055
:102BA00056E000BF40F60042C4F20002904206D058
:102BB000604504D00022C4F201029042D9D14A6893
:102BC00023F07003134341F6FF72C4F200029042F7
:102BD000D5DD43F6FF72C4F20102904222DC42F2DC
:102BE0000002C4F2000290422ED00022C4F2010280
:102BF000904229D0604527D02AE000BF40F600422D
:102C0000C4F2000290421FD041F60002C4F200025A
:102C1000904219D041F60042C4F20002904213D013
:102C200016E000BF44F20002C4F2010290420BD051
:102C300044F60002C4F20102904205D044F2004280
:102C4000C4F20102904203D1CA6823F440731343D3
:102C500023F080024B69D1F800E08C681A430260CF
:102C6000C46240F48062C0F828E0624504BF09698C
:102C70000163012141610169C90708BF10BD0169F4
:102C800021F00101016110BD10B504460068D4E9CE
:102C900002C22369016921F4405111430161626953
:102CA00043EA0C01E3691143C268194349F20C631A
:102CB0009A431143C1604169A26921F4407141F214
:102CC0000043114340F48062C4F201039A4241611F
:102CD00002D1FEF7AFFF01E0FEF798FFE1696368FC
:102CE0001922B1F5004FA0FB020123D15A00DB0FDE
:102CF000FDF7F8FA48F21F51C5F2EB11A0FB0123D2
:102D00005A094FF69C73C0F6FF7303F1805302FB20
:102D10000300322303EBC000A0FB01014FF4F87065
:102D200000EA111000EB0210C1F3421108442168BF
:102D3000886010BD9A009B0FFDF7D4FA48F21F512E
:102D4000C5F2EB11A0FB01235A094FF69C73C0F6A4
:102D5000FF7302FB0300322303EB0010A0FB010111
:102D6000F02000EA511000EB0210C1F343110844B7
:102D70002168886010BD0000FEE70000FEF7EAFD54
:102D8000FFF778FEFFF7C8FDFFF7AAFDFFF718FE73
:102D9000FFF7DEFDFFF76CFDFDF7FCFF42F2401090
:102DA000C2F20000FFF730FAFEE75FEA400C08BF0E
:102DB00091F0000F4FEA8C234FEAC12243EA5151B0
:102DC0004FEA1C5018BF00F5F0404FEA300018BF22
:102DD00041F000415FEA6C5C00F02980BCF1FF3FEC
:102DE00008BF40F080407047130C06BF12044FF03C
:102DF000100C4FF0000C130E04BF12020CF1080C63
:102E0000130F04BF12010CF1040C930F04BF9200C6
:102E10000CF1020CD30F04BF52000CF1010C11464F
:102E20004FF00002A0F11F00A0EB0C00704711F062
:102E3000004F08BF704731F000413FF4D5AF0B0C95
:102E400006BF09044FF0100C4FF0000C0B0E04BF2E
:102E500009020CF1080C0B0F04BF09010CF1040C62
:102E60008B0F04BF89000CF1020CCB0F04BF49008B
:102E70000CF1010CCCF1200322FA03F341EA030127
:102E800002FA0CF2A0EB0C0000F101007047000008
:102E900023F07F4720F07F4C80EA030000F00040E1
:102EA000ACEB070303F57C5303F1FF032DE98049E5
:102EB00009B44FEA144324EA03484FEA154B25EAC4
:102EC0000B4E0FF2042606EB13273E7803FB066732
:102ED000C7F5000707FB06F64FEAD64606F10206DD
:102EE0004FEA543707FB066CCCF1005C4FEA1C47F5
:102EF0002CEA074C0CFB06F507FB06F404EB154621
:102F00004FEA961649085FEA320234BF00204FF0BC
:102F100000404FEAD13706FB07FC4FEA1C4C0CFB84
:102F20000BF7D21B03FB0CF761EB07010CFB0EF751
:102F3000B0EB074072EB17420CFB08F734BFA2EB73
:102F40000742B2EB074261EB17414FEA0C444FEAEC
:102F5000910706FB07FC4FEA1C4C0CFB0BF7B0EB90
:102F6000C74072EB573203FB0CF734BFA2EBC742EA
:102F7000B2EBC74261EB57310CFB0EF7B0EBC70069
:102F800072EB57720CFB08F734BFA2EBC702B2EB2F
:102F9000C70261EB57714FEA816141EA92114FEA32
:102FA000826242EA90124FEA806004EBCC04039FF5
:102FB0004FEAD13706FB07FC4FEA1C4C0CFB0BF722
:102FC000D21B03FB0CF761EB07010CFB0EF7B0EB18
:102FD000074072EB17420CFB08F734BFA2EB074225
:102FE000B2EB074261EB17414FEA8C5504EB9C248E
:102FF0004FEA910706FB07FC4FEA1C4C0CFB0BF752
:10300000B0EBC74072EB573203FB0CF734BFA2EBB7
:10301000C742B2EBC74261EB57310CFB0EF7B0EB86
:10302000C70072EB57720CFB08F734BFA2EBC70264
:10303000B2EBC70261EB57714FEA816141EA92112D
:103040004FEA826242EA90124FEA806015EB4C250B
:1030500044F100044FEAD13706FB07FC4FEA1C4C51
:103060000CFB0BF7D21B03FB0CF761EB07010CFB0E
:103070000EF7B0EB074072EB17420CFB08F734BFBA
:10308000A2EB0742B2EB074261EB17414FEA8131F5
:1030900041EA92414FEA823242EA90424FEA80305E
:1030A0004FEA0C7615EB1C1544F1000448EA034383
:1030B0004EEA0B484FF0000EB2EB080C71EB030721
:1030C00024BF624639464EEB0E0E4FF0000B00183F
:1030D000524149414BEB0B0BB2EB080C71EB030770
:1030E0007BF1000B24BF624639464EEB0E0E4FF0CB
:1030F000000B0018524149414BEB0B0BB2EB080C93
:1031000071EB03077BF1000B24BF624639464EEB9F
:103110000E0E51EA020718BF46F0010616EB0E76B6
:1031200055F1000254F1000103D5BDE88901BDE865
:103130000088BDE88901BDE80048B619524141EB5D
:103140000101A3F10103704780807F7E7D7C7B7A43
:103150007978777676757473727171706F6E6E6D43
:103160006C6C6B6A6A6968686766666564646363E9
:1031700062616160605F5F5E5E5D5D5C5C5B5B5A6F
:103180005A595958585757565655555554545353DC
:1031900052525251515050504F4F4F4E4E4D4D4D37
:1031A0004C4C4C4B4B4B4A4A4A4949494848484782
:1031B00047474746464645454544444444434343C0
:1031C00043424242424141419C46002B30D4770069
:1031D0002BD04FEA37071CB503B44FF010004FF067
:1031E0001001BAF1000F06D0BCF1000FDCBF40F0B7
:1031F000080040F008014FF000000FBCBDE810408F
:103200000BF1010BBBF1010F08BF5FEA170722BFEB
:1032100012F1010211F101014FF0004143F10003ED
:1032200000F0004043EA00007047F9D35708D0E7A8
:1032300046EA06464FEA164613F1400F1FDD13F12A
:10324000200FDFBF16430A46002120335B42BED069
:10325000C3F1200746EA06464FEA164602FA07F788
:1032600046EA070622FA03F2C3F1200701FA07F73C
:1032700042EA070221FA03F14FF00003A7E746EA0A
:10328000020646EA06464FEA164646EA0106BCBF73
:1032900046EA0646360C4FF000034FF000024FF0AE
:1032A000000194E72DE9804C70B49A46934691E86A
:1032B000380007C831EA400C48BF34EA430C03D554
:1032C000FFF7E6FDFFF780FFF0BCBDE8008C2DE9BD
:1032D000804C70B49A46934691E8380007C810F0C5
:1032E000804F08BF13F0804F03D100F005F8FFF7BF
:1032F0006BFFF0BCBDE8008C20F07F4723F07F4CD3
:1033000080EA030000F0004007EB0C03A3F57C53B8
:10331000A3F1FE0392F0000F00F0B38095F0000FD0
:1033200000F077802DE901494FEA114021EA004879
:103330004FEA144624EA064700FB06FC08FB06F6A3
:1033400007FB08F818EB06484CEB164C00FB07F798
:1033500018EB07484CEB17404FEA124B22EA0B4E92
:103360004FEA154625EA06470BFB06FC0EFB06F660
:1033700007FB0EFE1EEB064E4CEB164C0BFB07F745
:103380001EEB074E4CEB174B18EB0B0840F10000FF
:1033900018EB0E0B58EB000840F100008F1A4FF0AD
:1033A00000014FF000063CBFC943661B14BFB5EBDC
:1033B000040C00213CBFC943F61B4FEA174427EA1F
:1033C00004454FEA1C472CEA074C04FB076205FB47
:1033D00007F70CFB05F616EB074642EB174204FB1A
:1033E0000CFC16EB0C4642EB1C421BEB060658EBA2
:1033F000020241414EEA8E0E46EA9E0601D5BDE824
:103400000189B619524141EB0101A3F10103BDE865
:1034100001894FEA144524EA05464FEA114721EA9B
:10342000074C05FB07F406FB07F70CFB06F111EB55
:10343000074144EB174405FB0CFC11EB0C4144EB3A
:103440001C444FEA124722EA074C05FB07F206FB31
:1034500007F70CFB06F616EB074642EB174205FB97
:103460000CFC16EB0C4642EB1C456A1854F10001AB
:1034700048BF7047B619524141EB0101A3F1010366
:10348000704795F0000F37D04FEA114221EA02460B
:103490004FEA144724EA074C02FB07F106FB07F743
:1034A0000CFB06F414EB074441EB174102FB0CFC48
:1034B00014EB0C4441EB1C414FEA154725EA074C3D
:1034C00002FB07F506FB07F70CFB06F616EB0746B3
:1034D00045EB174502FB0CFC16EB0C4645EB1C427A
:1034E000121951F1000148BF7047B619524141EB22
:1034F0000101A3F1010370474FEA144524EA054690
:103500004FEA114721EA074C05FB07F106FB07F7D5
:103510000CFB06F212EB074241EB174105FB0CFCDA
:1035200012EB0C4251EB1C414FF0000648BF7047B4
:10353000921841EB0101A3F10103704703B4019814
:103540004100009850EAC12018BF04204A0D18BF5E
:1035500040F0010040F2FF72B2EB515F08BF40F053
:103560000200012808BF052002B070474100080290
:1035700018BF04200A0E18BF40F001004FF07F4230
:1035800032EA010108BF40F00200012808BF05200F
:103590007047000010EE101A08B5444A6846B2EBB6
:1035A000410F28D94FF0E640B0EB410F94BF002007
:1035B0004FF0FF3000900098002861DB60EE000AB9
:1035C00010F0010F45D010F0020FDFED391A9FED1A
:1035D000391A00EEA11ADFED381A40EE811A21EEF9
:1035E000A01AF0EE400A40EE010A08BFF1EE600AB0
:1035F000B0EE600A08BD314B21F0004293423CD945
:1036000011F0004FDFED2E0A20EE201ADFED2D0A1B
:1036100019BF31EE601A71EE200A31EE201A71EEF8
:10362000600ABDEEE01A11EE100A9FED271A00F0B5
:10363000030000EEC10A9FED251A009000EEC10ABA
:103640009FED231A00EEC10A9FED221A00EEC10A77
:10365000B1E79FED211A9FED210A10F0020F00EE55
:10366000810A9FED1F1A00EE801AB7EE000A00EEE5
:10367000810A18BFB1EE400A08BD00F005FA9AE7CA
:1036800010EE100A4000B0F17F4F3CBFB7EE000AC9
:1036900008BD07D14FF00100FCF77DFFBDE80840F1
:1036A00000F0DAB9BDE8084000F0D2B9B61F927E4A
:1036B000336D4CB9DA82083CA0AA2ABE490E4946AD
:1036C00083F9223F0000004B0000C93F00A0FD39F4
:1036D0000020A2331A61342CB93AB2BACA9F2A3DEB
:1036E000DDFFFFBE10B510EE104A4FF019406949DA
:1036F000002200EB44002DED028B884257D8DFED0D
:10370000660A14F0004F60EE200A14BFBEEE001AE5
:10371000B6EE001A71EE200AFDEEE00A10EE900AF5
:1037200000EE900AF8EEE00A9FED5C1A00EEC10A86
:103730009FED5B1A00EEC10ADFED5A0A9FED5A1A9F
:1037400000EE201ADFED590A40EE010A9FED581AEB
:10375000584B00F0030100EE201A21EE000A7B44D2
:1037600003EB8103D3ED000A534B7B4403EB81034E
:1037700093ED001A514B41EE000A7B4403EB8101AB
:10378000801091ED000A70EE800AEABB00EE100A8C
:10379000B8EEC01ADFED4A1A9FED4A0ABDEC028B63
:1037A00001EE210ABCEEC00A20EE200A10BD4FF047
:1037B000FF40A0431DD04FF0CE40B0EB440F81BF7F
:1037C000F7EE000A30EE200ABDEC028B10BD3E4839
:1037D000B0EB440F28BF012291D20220FCF7DBFEA0
:1037E00014F0004F15D0BDEC028BBDE8104000F086
:1037F00043B914F5000F02BF9FED340ABDEC028BF4
:1038000010BDBDEC028B00E009E0BDE8104000F007
:103810001FB9BDEC028BBDE8104000F025B900EBEC
:10382000D07359104FF07E5202EBC15100EE101AC6
:10383000A0EB630002EBC05060EE200A00EE100A1D
:1038400020EE208A18EE100A88B118EE100AB0F1A6
:10385000FF4F15D018EE100AFFF788FE042808BFA6
:1038600000F00AF9B0EE480ABDEC028B10BD022050
:10387000FCF791FEBDEC028BBDE8104000F0FCB8F7
:103880000220FCF788FEBDEC028BBDE8104000F082
:10389000EBB800000000501E3BAAB8400070313E5B
:1038A000F4FD053712BB2A3D12BB2A3EFFFFFF3E47
:1038B000FFFF7F3F320800003608000006080000C6
:1038C0000000004B00007E4E0000A08500000000BC
:1038D00010EE100A10B50023A0F50001B1F1FE4F63
:1038E00067D200BF00F500216FF07E0202EBE15CC1
:1038F000C1F302524FF07E5101EB025100EE901ADB
:10390000A0EBCC5003EB0C0100EE100A51EA0200D0
:1039100036D030EE601A70EE200A9FED3D2A3E4808
:1039200081EE200A9FED3B1A60EE000A00EE821A3B
:1039300060EE201A61EE810A784401EE101A00EB65
:1039400082009FED362AB8EEC11AD0ED001A344835
:1039500041EE021A784401EE101A00EB8200B8EE34
:10396000C11A90ED002ADFED2F2A01EE222AB0EED7
:10397000001A72EE200A40EE010A31EEA00A10BDD4
:10398000F7EE000A9FED291A30EE600ADFED260AF5
:1039900000EE201ADFED260A60EE001A40EE010A62
:1039A0009FED241A00EE201A61EE810A30EE200A03
:1039B00010BD4FF07F41B1EB400F03D2BDE8104086
:1039C00000F046B8B0F1FF4F08BF10BDB5EEC00A19
:1039D000F1EE10FA06D20120FCF7DDFDBDE8104043
:1039E00000F03AB8B5EEC00AF1EE10FA07D10220A5
:1039F000FCF7D1FD00F022F8B1EE400A10BDDFED7A
:103A00000E0A6FF0160320EE200A10EE100A69E786
:103A100066F1CC3EAAAA2A3F780600000070313F2A
:103A20007C060000F4FD053821ED423E0A1180BEFF
:103A3000C1ABAA3EFFFFFFBE0000004BDFED030A53
:103A4000B7EE001A81EE200A704700000000000067
:103A500030EE000A70470000DFED020A80EEA00A97
:103A600070470000000000009FED020A20EE000AEF
:103A700070470000000000709FED020A20EE000A6F
:103A800070470000000000102DE9F0014FF07F4268
:103A9000B2EB410F9FBF4FF0FF310160BDE8F00175
:103AA00070474FF0004242EA0123C1F3C752783A0F
:103AB000551112F01F0C434CCCF120067C44C1F38D
:103AC000C752A2F178024FEA621204EB820254F864
:103AD000254008BFD2E9015612D0556804FA0CF40B
:103AE00025FA06F73C43976805FA0CF527FA06F81D
:103AF000D26807FA0CFCF24045EA08054CEA0206D7
:103B0000A4FB034CA5FB0352A6FB03631D449D428B
:103B100034BF012600261319334416B1934202D94B
:103B200003E0934201D2012200E00022624402F14C
:103B3000200C9206DC0C42EA443200EE102A5B03B1
:103B4000DFED210AF8EEC01A00EE103A4FEA9C1C95
:103B500011F0004FB8EE400AC0F800C020EE201A65
:103B600000EE105ADFED190AB8EE400A20EE200AE6
:103B700071EE810A70EE800A10EE902A02F5006262
:103B80006FF30B0200EE902A70EEE11A31EEC11ACB
:103B9000DFED101A30EE411A9FED0D0A20EE800A7B
:103BA00001EE210A9FED0C1A00EE810A04BFBDE868
:103BB000F0017047CCF180510160BDE8F001B1EE39
:103BC000400A704734050000000000360000802CD9
:103BD00022AAFD29DB0FC92F0000C92F30380A287F
:103BE00001D20120704700207047000010B5002965
:103BF0000AD00878002807D005487844FDF730F847
:103C0000002801D0002010BD0248784410BD0000FB
:103C1000EE040000E604000021F0004201F0004341
:103C2000A2F16052B2F5801F28BFD2F17F6C0BD990
:103C30005FEA001C43EAC20242EB507018BF7047B3
:103C400028BF20F001007047B2F5801FBCBF1846A6
:103C500070474FEA410C1CF5001F02D2084600F0E5
:103C600089B970B500F0B4F800000089FFF7F6BF1D
:103C70004FF00040A0F580007047000070B5DFF8FD
:103C800048C11CEA111E1EBF1CEA13159EEA0C0F48
:103C900095EA0C0F00F06F8081EA03044EEAD47EAF
:103CA000AE4421EA4C1123EA4C1341F4801143F451
:103CB0008013AEF17F7EA1FB024CA0FB0365361999
:103CC00055EB0C05A1FB034C4CF10003A0FB021CBF
:103CD00016EB0C06654153F10003094218BF46F08C
:103CE000010613F4007F0BD14FEA03314FEA053090
:103CF00041EA155140EA165034036FF003020AE01E
:103D00004FEAC3214FEAC52041EA555140EA5650D7
:103D1000F4026FF0020202EB2E4201EB025585EA3B
:103D2000CE710AD05FEA440C18BF24F0004450F171
:103D3000000041F1000120EAD47040F2FE7C6245AF
:103D400000D270BDA84214BF4FF080444FF04044F1
:103D5000002E08BF0024BEF1806FA8BFA1F1C041B2
:103D6000BDE8704080F2828001F1C04101F0004165
:103D70004FF0000070470CEA13159EEA0C0F18BFB5
:103D800095EA0C0F06D081EA030E4FF000000EF00A
:103D9000004170BD00F01CF88900013E00F007B83A
:103DA00000F009B84FEA430C5FEA5C5C08D081EA96
:103DB000030100F05BB84FEA410C5FEA5C5CF6D1AE
:103DC00002494FF0000070470000FF070000F87F35
:103DD0000EF1020E2EF0030E5EF8046B364205D48F
:103DE000012A43EB030515F5001F12D8012841EB0A
:103DF000010C1CF5001F0CD80ED14FEAD17C0CEB46
:103E00004C0C0CF1020C15F5001F08BF4CEBD37CD9
:103E100004E04FF0080C01E04FEAD37C0CEB4C05BA
:103E200026FA05F606F00706B6F1040C06D20EEBEC
:103E3000860CBDE870404CF0010C6047DFE80CF0E8
:103E4000090B02024FF00041A1F500214FF00000E4
:103E500070BD19461046012851EB010418BFD4F576
:103E6000001484BF002001F0004170BD0808A0F5D7
:103E700000114FEA3101704743004FEAD30C4FEA7B
:103E80003C0C43401FBF40070CF1605113F0FE4F44
:103E900070471CF0006F03D10CF000410020704708
:103EA0000CF0004343EA507040EACC0010B500F03B
:103EB0000EF800BF000000924FEA0001FFF7D6BFE6
:103EC0004FF00041A1F500214FF0000070470EF1C6
:103ED000020E2EF0030E5EF8044B244204D44FEA87
:103EE0004102B2F17F4F11D84FEA4003B3F17F4F47
:103EF0000CD80ED14FEAD07C0CEB4C0C0CF1020C20
:103F0000B2F17F4F08BF4CEBD17C04E04FF0080CBE
:103F100001E04FEAD17C0CEB4C0324FA03F404F0EB
:103F20000704B4F1040C06D20EEB840CBDE810407B
:103F30004CF0010C6047DFE80CF0070802024FF07C
:103F40000040A0F5800010BD0846420018BFD2F125
:103F5000807288BF00F0004010BDF1EE100A4FF6ED
:103F6000FF71C0F2C03120EA010040F04070E1EE84
:103F7000100A7047FF2141EAD050C0057047FCF796
:103F8000E8BB00000000803F0030983F0000B53FD4
:103F90000040D73F00000000320A7E397F661E399C
:103FA0005B991F390000803FF037983FF304B53F1D
:103FB000FD44D73F000000000030F13D0070643E3A
:103FC0000000A33E0090CF3E0090F83E00400F3F1F
:103FD00000E0203F0000000015B78337CDE37B38B9
:103FE0000EE1C53860F69138AF5F0F38E1BC3E385E
:103FF00023F44739000000006E83F9A22915444ECE
:10400000D15727FCC0DD34F5999562DB4190433CE4
:10401000AB6351FE02400000000000A00000000061
:1040200005400000000000C8000000000C40000037
:104030000000409C00000000194000000020BCBEB1
:104040000000000034400000BFC91B8E00000004C7
:10405000B5400000504BCFD06607E2CF0100000012
:104060006C4100003E8251AADFEEA734010000003F
:10407000D9420000DCB5A0E23A301F97FFFFFFFFF6
:10408000B4450000FD25A0C8E9A3C14FFFFFFFFF15
:10409000FF3F00000000008000000000FF3F000024
:1040A0000000008000000000000000000000000090
:1040B00001020304060708090000000001020304CE
:1040C0000006101600061016084100080000002027
:1040D00010000000EC01000818410008100000204A
:1040E000C82700000C0200081C000000430000006C
:1040F000F8FFFFFF0C0000000E0000000F000000A2
:104100002E00000000000000010000001000000070
:084110000024F400000000008F
:040000050800018965
:00000001FF
